{
  "_format": "hh-sol-artifact-1",
  "contractName": "NameRegister",
  "sourceName": "contracts/NameRegister.sol",
  "abi": [
    {
      "inputs": [],
      "stateMutability": "nonpayable",
      "type": "constructor"
    },
    {
      "anonymous": false,
      "inputs": [
        {
          "indexed": false,
          "internalType": "address",
          "name": "_address",
          "type": "address"
        },
        {
          "indexed": false,
          "internalType": "string",
          "name": "_name",
          "type": "string"
        }
      ],
      "name": "Registered",
      "type": "event"
    },
    {
      "inputs": [],
      "name": "readName",
      "outputs": [
        {
          "internalType": "string",
          "name": "",
          "type": "string"
        }
      ],
      "stateMutability": "view",
      "type": "function"
    },
    {
      "inputs": [
        {
          "internalType": "string",
          "name": "_name",
          "type": "string"
        }
      ],
      "name": "setName",
      "outputs": [],
      "stateMutability": "nonpayable",
      "type": "function"
    }
  ],
  "bytecode": "0x608060405234801561001057600080fd5b5061059a806100206000396000f3fe608060405234801561001057600080fd5b50600436106100365760003560e01c806339793ea91461003b578063c47f002714610059575b600080fd5b61004361006e565b60405161005091906104c9565b60405180910390f35b61006c6100673660046102fd565b61010f565b005b33600090815260208190526040902080546060919061008c90610513565b80601f01602080910402602001604051908101604052809291908181526020018280546100b890610513565b80156101055780601f106100da57610100808354040283529160200191610105565b820191906000526020600020905b8154815290600101906020018083116100e857829003601f168201915b5050505050905090565b60018160405161011f91906103da565b9081526040519081900360200190205460ff161561019d576040517f08c379a000000000000000000000000000000000000000000000000000000000815260206004820152601260248201527f4e616d6520616c72656164792074616b656e0000000000000000000000000000604482015260640160405180910390fd5b3360009081526020819052604080822090516001916101bb916103f6565b9081526040805160209281900383019020805460ff1916931515939093179092553360009081528082529190912082516101f792840190610264565b506001808260405161020991906103da565b908152604051908190036020018120805492151560ff19909316929092179091557fb3eccf73f39b1c07947c780b2b39df2a1bb058b4037b0a42d0881ca1a028a132906102599033908490610492565b60405180910390a150565b82805461027090610513565b90600052602060002090601f01602090048101928261029257600085556102d8565b82601f106102ab57805160ff19168380011785556102d8565b828001600101855582156102d8579182015b828111156102d85782518255916020019190600101906102bd565b506102e49291506102e8565b5090565b5b808211156102e457600081556001016102e9565b60006020828403121561030f57600080fd5b813567ffffffffffffffff8082111561032757600080fd5b818401915084601f83011261033b57600080fd5b81358181111561034d5761034d61054e565b604051601f8201601f19908116603f011681019083821181831017156103755761037561054e565b8160405282815287602084870101111561038e57600080fd5b826020860160208301376000928101602001929092525095945050505050565b600081518084526103c68160208601602086016104e3565b601f01601f19169290920160200192915050565b600082516103ec8184602087016104e3565b9190910192915050565b600080835481600182811c91508083168061041257607f831692505b602080841082141561043257634e487b7160e01b86526022600452602486fd5b818015610446576001811461045757610484565b60ff19861689528489019650610484565b60008a81526020902060005b8681101561047c5781548b820152908501908301610463565b505084890196505b509498975050505050505050565b73ffffffffffffffffffffffffffffffffffffffff831681526040602082015260006104c160408301846103ae565b949350505050565b6020815260006104dc60208301846103ae565b9392505050565b60005b838110156104fe5781810151838201526020016104e6565b8381111561050d576000848401525b50505050565b600181811c9082168061052757607f821691505b6020821081141561054857634e487b7160e01b600052602260045260246000fd5b50919050565b634e487b7160e01b600052604160045260246000fdfea2646970667358221220cba469ce595ecf1a7a6f3a0c86d8cf3e52eb8e371b60fcd244db27265e18bb2964736f6c63430008070033",
  "linkReferences": {},
  "deployedLinkReferences": {}
}